:020000040800F2
:1000000000080020CD010008D5010008D701000834
:10001000D9010008DB010008DD0100080000000034
:10002000000000000000000000000000DF010008E8
:10003000E101000800000000E3010008E5010008FC
:10004000E7010008E7010008E7010008E7010008F0
:10005000E7010008E7010008E7010008E7010008E0
:10006000E7010008E7010008E7010008E7010008D0
:100070002D080008E701000845080008E70100080E
:10008000E7010008E7010008E7010008E7010008B0
:10009000E7010008E7010008E7010008E7010008A0
:1000A000E7010008E7010008E7010008E701000890
:1000B00041140008E7010008E7010008E701000813
:1000C000E7010008E7010008E7010008E701000870
:1000D000E701000811160008E701000851160008A2
:1000E000E7010008E7010008E7010008E701000850
:1000F000E7010008E7010008E7010008E701000840
:10010000E7010008E7010008E7010008E70100082F
:10011000E7010008E7010008E7010008E70100081F
:10012000E7010008E7010008E7010008E70100080F
:1001300000F002F800F03AF80AA090E8000C8244BF
:100140008344AAF10107DA4501D100F02FF8AFF29C
:10015000090EBAE80F0013F0010F18BFFB1A43F0A5
:10016000010318474C2A00006C2A0000103A24BFF3
:1001700078C878C1FAD8520724BF30C830C144BF0C
:1001800004680C607047000000230024002500264E
:10019000103A28BF78C1FBD8520728BF30C148BFEA
:1001A0000B6070471FB51FBD10B510BD00F031F8D2
:1001B0001146FFF7F7FF01F00DFC00F04FF803B414
:1001C000FFF7F2FF03BC00F057F800000948804732
:1001D00009480047FEE7FEE7FEE7FEE7FEE7FEE729
:1001E000FEE7FEE7FEE7FEE704480549054A064B41
:1001F00070470000E11300083101000800020020F0
:100200000008002000040020000400207047704710
:100210007047754600F02CF8AE4605006946534617
:1002200020F00700854618B020B5FFF7DDFFBDE8D8
:1002300020404FF000064FF000074FF000084FF04D
:10024000000B21F00701AC46ACE8C009ACE8C009DE
:10025000ACE8C009ACE8C0098D46704710B504464B
:10026000AFF300802046BDE81040FFF7A8BF0000B4
:10027000004870479C01002001491820ABBEFEE7F2
:1002800026000200704721B1826842F001028260BC
:1002900003E0826822F001028260704710B50446D4
:1002A0001248844208D10121401500F097FF002137
:1002B000601500F093FF17E00D48844208D101213A
:1002C000001500F08BFF0021201500F087FF0BE0E8
:1002D0000848844208D10121C80300F07FFF0021B3
:1002E0004FF4004000F07AFF10BD000000240140F0
:1002F00000280140003C0140014600208A6802F0CD
:1003000004020AB1012000E0002070470146C86CD9
:1003100080B270470246002013680B400BB10120E9
:1003200000E000207047014600208A6802F00802C1
:100330000AB1012000E000207047000030B50246FD
:100340000020002350680F4C20400D790C6844EACF
:1003500005242043506090680B4C2040D1E90254A2
:100360002C434D7944EA450420439060D06A20F440
:1003700070000C7C641EE4B2234340EA0350D06258
:1003800030BD0000FFFEF0FFFDF7F1FFF0B50446C1
:100390000D4600200021092D11DDE068A5F10A06B7
:1003A00006EB4607072606FA07F18843A5F10A0679
:1003B00006EB460603FA06F10843E0600CE020690C
:1003C00005EB4507072606FA07F1884305EB4506C6
:1003D00003FA06F108432061072A0FDA606B561E04
:1003E00006EB86071F2606FA07F18843561E06EB22
:1003F000860605FA06F10843606322E00D2A0FDA4B
:10040000206BD61F06EB86071F2606FA07F18843E6
:10041000D61F06EB860605FA06F10843206310E0B6
:10042000E06AA2F10D0606EB86071F2606FA07F121
:100430008843A2F10D0606EB860605FA06F108438D
:10044000E062F0BD816841F008018160704721B130
:10045000826842F4A002826003E0826822F4A00273
:1004600082607047816841F004018160704700003C
:1004700030B10749096841F40001054A116005E0FF
:100480000349096821F40001014A11607047000026
:100490000824014000B587B001214FF4017000F03D
:1004A0008DFE4FF4004000F04DFE1F20ADF804001B
:1004B00000208DF8070001A9204800F0B8FA0320B9
:1004C000ADF8040000208DF8070001A91C4800F0D9
:1004D000AEFA1C48FFF7E2FE002002908DF80C00F7
:1004E0008DF80D004FF4602004900020059001204D
:1004F0008DF8180002A91348FFF720FF01211148C9
:10050000FFF7C1FE0F48FFF79DFF00BF0D48FFF743
:100510000AFF0028FAD10B48FFF7A4FF00BF0948E3
:10052000FFF7EAFE0028FAD106480830006840F4D8
:10053000000004490831086007B000BD0008014010
:10054000000C01400024014000B585B001210420C9
:1005500000F034FE4FF4CC50ADF8000003208DF8CD
:10056000020010208DF8030069461C4800F05FFA75
:100570000121084600F002FE0121880700F0BAFFC1
:100580006420ADF80C0048F69F40ADF8080000204C
:10059000ADF80E00ADF80A0002A94FF0804000F05F
:1005A000D3FF0121880700F0A8FF01221146900720
:1005B00000F0C0FF4FF4C06000F044FD1C208DF837
:1005C000040002208DF8050001208DF806008DF84A
:1005D000070001A800F0FEFC05B000BD00080140C6
:1005E00030B5002200200AE18C4B1B5CAA2B7DD188
:1005F000002106E04318894CE35C1344DAB24B1C3B
:10060000D9B22F29F6DB00F12F03844CE35C93422F
:10061000EDD1831CE45C814D431CEB5C04EB0323B4
:100620007F4C23802C46031DE45CC31CEB5C04EB75
:1006300003237B4C63802C46831DE45C431DEB5CF1
:1006400004EB0323764CA3802C4600F10803E45C02
:10065000C31DEB5C04EB0323714CE3802C4600F1DB
:100660000A03E45C5B1EEB5C04EB03236C4C23810C
:100670002C4600F10C03E45C5B1EEB5C04EB0323F3
:10068000674C63812C4600F10E03E45C5B1EEB5C5F
:1006900004EB0323624CA3812C4600F11003E45CBD
:1006A0005B1EEB5C04EB03235D4CE3812C4600F105
:1006B0001203E45C5B1EEB5C04EB0323584C2382C7
:1006C0002C4600F11403E45C5B1EEB5C04EB03239B
:1006D000534C63822C4600F11603E45C5B1EEB5C1A
:1006E00004EB03234E4CA3822C4600E085E000F18E
:1006F0001803E45C5B1EEB5C04EB0323484CE382D1
:100700002C4600F11A03E45C5B1EEB5C04EB032354
:10071000434C23832C4600F11C03E45C5B1EEB5C22
:1007200004EB03233E4C63832C4600F11E03E45C80
:100730005B1EEB5C04EB0323394CA3832C4600F1D6
:100740002003E45C5B1EEB5C04EB0323344CE3838B
:100750002C4600F12103E35C324C23702C4600F15F
:100760002203E35C304C23702C4600F12303E35C4E
:100770002D4C63702C4600F12403E35C2A4CA370DB
:100780002C4600F12503E35C274CE3702C4600F176
:100790002603E35C244C23712C4600F12703E35C21
:1007A000214C63712C4600F12803E35C1E4CA371BD
:1007B0002C4600F12903E35C1B4CE3712C4600F14D
:1007C0002A03E35C184C23722C4600F12B03E35CF4
:1007D000154C63722C4600F12C03E35C124CA3729F
:1007E0002C4600F12D03E35C0F4CE3722C4600F124
:1007F0002E03E35C0C4C237305E0431CD8B2602845
:10080000FFF6F2AE00BF002004E00023034C2354A7
:10081000431CD8B26028F8DB30BD00006500002022
:1008200038000020000000205800002010B52020D3
:1008300000F014F80021024800F01EF810BD00007E
:100840001C00024010B54FF4005000F007F80021E2
:10085000014800F011F810BD4400024000F0805142
:1008600011B10349086001E0024948607047000087
:10087000040402400000024021B1026842F001027B
:10088000026004E002684FF6FE731A40026070478F
:1008900001684FF6FE721140016000210160416065
:1008A0008160C1604B49884208D14A49083949688A
:1008B00041F00F01474A083A51608AE04549143136
:1008C000884208D143490839496841F0F001414A5A
:1008D000083A51607DE03F492831884208D13D49BE
:1008E0000839496841F470613A4A083A516070E049
:1008F00038493C31884208D136490839496841F4C1
:100900007041344A083A516063E0324950318842BC
:1009100008D130490839496841F470212D4A083A14
:10092000516056E02B496431884208D12949083981
:10093000496841F47001274A083A516049E0254965
:100940007831884208D123490839496841F07061FB
:10095000204A083A51603CE01F49884206D1011FF5
:10096000096841F00F01021F116032E01A49143189
:10097000884208D11849091F096841F0F001164A58
:10098000121F116025E014492831884208D112490C
:10099000091F096841F470610F4A121F116018E0C5
:1009A0000D493C31884208D10B49091F096841F4BF
:1009B0007041094A121F11600BE00749503188420B
:1009C00007D10549091F096841F47021024A121F25
:1009D0001160704708000240080402401AB1036821
:1009E0000B43036002E003688B430360704710B55C
:1009F0000022026847F6F0739A430C6A8B6823431F
:100A00000C6923434C6923438C692343CC692343FA
:100A10004C6A23438C6A23431A430260CB684360C9
:100A20000B6883604B68C36010BD416070472DE95F
:100A3000F041024600250026002000230024002764
:100A400091F803C00CF00F0591F803C00CF0100CE6
:100A5000BCF1000F03D091F802C04CEA050591F8F3
:100A600000C0BCF1000F31D0146800202BE04FF023
:100A7000010C0CFA00F3B1F800C00CEA03069E4228
:100A800020D183004FF00F0C0CFA03F7BC4305FA9A
:100A900003FC4CEA040491F803C0BCF1280F06D112
:100AA0004FF0010C0CFA00FCC2F814C00AE091F8F7
:100AB00003C0BCF1480F05D14FF0010C0CFA00FC4B
:100AC000C2F810C0401C0828D1D31460B1F800C08F
:100AD000BCF1FF0F34DD546800202EE000F1080C5B
:100AE0004FF0010808FA0CF3B1F800C00CEA030655
:100AF0009E4221D183004FF00F0C0CFA03F7BC4348
:100B000005FA03FC4CEA040491F803C0BCF1280F79
:100B100005D100F1080C08FA0CF8C2F8148091F81D
:100B200003C0BCF1480F07D100F1080C4FF00108D9
:100B300008FA0CF8C2F81080401C0828CED3546084
:100B4000BDE8F081F0B50A4600230024002100250D
:100B500000F00046B6F1004F02D11D4EF16901E0F0
:100B60001B4E7168C0F3034583B200F44016B6F51E
:100B7000401F08D121F07061154E766826F070662E
:100B8000134F7E6012E000F48016B6F5801F06D188
:100B9000032606FA05F4A14341F0706106E0460D14
:100BA000360103FA06F6B14341F0706122B1460DF9
:100BB000360103FA06F6314300F00046B6F1004F65
:100BC00002D1034EF16101E0014E7160F0BD000001
:100BD0000000014010B504460723012221460948C0
:100BE000FFF7D4FB01210748FFF731FC00BF0221CA
:100BF0000448FFF78FFB0028F9D00248FFF786FB77
:100C000010BD0000002401402DE9F04107460C46CC
:100C10000025002608E03846FFF7DCFF05440520E4
:100C200000F0B2FE701CC6B2A642F4DBB5FBF4F0D5
:100C300080B2BDE8F08100002DE9F05F14211020A2
:100C4000FFF7E2FF8346584601F05CFE804601F064
:100C5000E9FC06464FF06632134B01F0FBFA0446FE
:100C60000D4622462B461148114901F0F1FB804602
:100C7000104A114B01F066F9064600220F4B01F0B5
:100C8000B9F804460D4600220D4B2046294601F0D6
:100C9000E1FA064601F0AEFA0FFA80FAAAF57A7088
:100CA00000B2BDE8F09F000066664A3FE17A14AEEC
:100CB00047E1F63F22FDF675E09C713F00003940A8
:100CC0000000594010B500200E4908600E48006829
:100CD00020F470400C4908600846006840F4405019
:100CE000086000200949C1F8AC01012000F04CFE69
:100CF00001200449086000F047FE00200349C1F8C4
:100D0000A80110BDA8812142040C014000802142AD
:100D10000C48806940F008000A4988610A48006868
:100D200020F47F40084908600846006840F44C50B1
:100D3000086005480830006840F440600249083106
:100D40000860704700100240040C014010B50020FC
:100D50000E4908600E48006820F470400C49086095
:100D60000846006840F44050086001200949C1F875
:100D7000AC0100F009FE01200449086000F004FE07
:100D800000200449C1F8A80110BD0000A88121423B
:100D9000040C01400080214270B50546002417482C
:100DA000006820F47040154908600846006840F467
:100DB00000400860002616E000201149086001206C
:100DC00000F0E2FD01200F49C1F8A8016006040E01
:100DD0000B487C38006808B1601CC4B2012000F0E8
:100DE000D3FD701CC6B2082EE6DB15B9FFF7AEFFC7
:100DF00001E0FFF767FF204670BD0000040C0140D2
:100E0000A88121420080214270B504460D4600F0C1
:100E10004DF8204600F018F800F092F8284600F04F
:100E200013F800F08DF800F041F8611CC8B200F032
:100E30000BF800F085F80020FFF7AEFF064600F043
:100E40005BF8304670BD000070B504461448006879
:100E500020F47040124908600846006840F4405091
:100E6000086000200F490860002516E0E0090D49E0
:100E7000091D08606006040E012000F085FD0120B8
:100E80000949C1F8A80100F07FFD0020054908606C
:100E9000012000F079FD681CC5B2082DE6DB70BDAD
:100EA000040C0140A88121420080214210B50F4866
:100EB000006820F470400D4908600846006840F45E
:100EC0004050086001200A4908600A49C1F8A80199
:100ED00000F05AFD002006490860012000F054FD92
:100EE00000200449C1F8A80110BD0000040C014015
:100EF000AC8121420080214210B50E48006820F4E8
:100F000070400C4908600846006840F44050086092
:100F10000020094908600949C1F8AC01012000F02E
:100F200033FD0120044908600449C1F8AC0100F018
:100F30002BFD10BD040C0140A881214200802142FC
:100F400010B500241448006820F47040124908606D
:100F50000846006840F40040086001200F4908601E
:100F600000F012FD01200E49C1F8A80100F00CFDAF
:100F700007E0601CC4B2FA2C03DDFFF7BDFF0120BF
:100F800010BD0648803800680028F2D10349091FC7
:100F9000086000BFF4E70000040C0140AC8121426E
:100FA0000080214270B506460C461546FFF77EFFCD
:100FB0003046FFF749FFFFF7C3FF2046FFF744FF26
:100FC000FFF7BEFF2846FFF73FFFFFF7B9FFFFF728
:100FD00093FF70BD70B5002100230F22C47804B3C5
:100FE000154C246804F4E064C4F5E064210AC1F1FE
:100FF0000403CA40447804FA03F18478144021437E
:1010000009010E4C0678A155047804F01F0501244F
:10101000AC4005786D11AD0005F1E025C5F8004143
:1010200009E0047804F01F050124AC40044D067863
:10103000761145F8264070BD0CED00E000E400E0BC
:1010400080E100E002490143024A1160704700005C
:101050000000FA050CED00E02DE9F04706462E4FA2
:101060004FF000080025A9462C49304601F05EFCEF
:1010700006464FF08B41384601F062FB0746314689
:10108000384601F05DFB07464FF07E51384601F0CF
:1010900019FD0746384601F015FC00F0FF08002254
:1010A00011468020FFF77EFF00218020FFF7ACFE75
:1010B000054605F07F0040F010094A4600218020D7
:1010C000FFF770FF4246FE218020FFF76BFF2A46A4
:1010D00000218020FFF766FF642000F02FFC45F020
:1010E000A10200218020FFF75DFF00240FE0A00097
:1010F000801DC1B200228020FFF754FFA000C01D58
:10110000C1B200228020FFF74DFF601CC4B2102C3A
:10111000EDDBBDE8F087000020BCBE4B6666663F95
:1011200070B504460D46EAB2A0000830C1B2802076
:10113000FFF738FF2A12A0000930C1B28020FFF764
:1011400031FF70BD01460020034A506820F4404042
:1011500008435060704700000010024029B1064A61
:1011600052690243044B5A6104E0034A52698243C4
:10117000014B5A61704700000010024029B1064A35
:10118000D2690243044BDA6104E0034AD269824324
:10119000014BDA61704700000010024029B1064A95
:1011A00012690243044B1A6104E0034A1269824344
:1011B000014B1A61704700000010024029B1064A35
:1011C00092690243044B9A6104E0034A92698243A4
:1011D000014B9A61704700000010024029B1064A95
:1011E000D2680243044BDA6004E0034AD2688243C7
:1011F000014BDA60704700000010024030B500215A
:101200000022002400232D4D6D6805F00C0121B152
:10121000042905D0082923D105E0294D056022E0E5
:10122000274D05601FE0254D6D6805F47012234DB4
:101230006D6805F48034022505EB92421CB9214DFE
:10124000554305600BE01D4D6D6805F400351DB17B
:101250001C4D5543056002E0194D5543056002E001
:10126000174D056000BF00BF144D6D6805F0F0011B
:101270000909154D6B5C0568DD4045600F4D6D68D3
:1012800005F4E061090A104D6B5C4568DD4085603E
:101290000A4D6D6805F46051C90A0B4D6B5C4568D9
:1012A000DD40C560054D6D6805F44041890B074D73
:1012B0006B5CC568B5FBF3F5056130BD00100240FD
:1012C00000127A0000093D001000002020000020DC
:1012D00010B500F001F810BD0CB500200190009091
:1012E0003348006840F480303149086000BF30481E
:1012F000006800F4003000900198401C01900098B4
:1013000018B90198B0F5A06FF1D12948006800F430
:10131000003010B10120009001E000200090009802
:10132000012843D12348006840F01000214908609B
:101330000846006820F0030008600846006840F096
:10134000020008601A484068194948600846406829
:1013500048600846406840F480604860084640683D
:1013600020F47C1048600846406840F4E81048606B
:101370000846006840F08070086000BF0C480068B4
:1013800000F000700028F9D00948406820F0030000
:10139000074948600846406840F00200486000BFC6
:1013A0000348406800F00C000828F9D10CBD00008B
:1013B0000010024000200240042808D14FF0E02134
:1013C000096941F004014FF0E022116107E04FF09C
:1013D000E021096921F004014FF0E022116170471A
:1013E00010B51348006840F0010011490860084634
:1013F0004068104908400E494860084600680E4998
:1014000008400B4908600846006820F48020086006
:101410000846406820F4FE0048604FF41F008860D2
:10142000FFF756FF4FF000600449086010BD000050
:10143000001002400000FFF8FFFFF6FE08ED00E09C
:1014400070B50121880700F064F800284AD0012116
:10145000880700F04FF824480078401C22490870A3
:10146000FFF7BEF82148007800F0010030B12048B5
:10147000006840F080001E49086005E01C480068D4
:1014800020F080001A4908601848007800F0100029
:10149000102806D11648006840F48070144908608E
:1014A00005E01348006820F4807011490860FFF7D8
:1014B000C3FB85B20021284600F0C0FA642190FBEE
:1014C000F1F0C4B2204600F091F8074800781428E3
:1014D00008D10020044908700548006880F40060C5
:1014E0000349086070BD00000100002000000020DA
:1014F0000C080140CA430282704721B1028842F0C1
:101500000102028004E002884FF6FE731A40028056
:10151000704730B50246002000230024158A05EAF2
:101520000103958905EA010413B10CB1012000E023
:10153000002030BD1AB183890B43838102E0838987
:101540008B43838170470000002202881D4B984224
:101550000ED01D4B98420BD0B0F1804F08D01B4BE2
:10156000984205D01A4B984202D01A4B984204D1A7
:101570004FF68F731A404B881A43174B984207D087
:10158000164B984204D04FF6FF431A40CB881A43BB
:1015900002808B8883850B8803850A4B98420BD089
:1015A000094B984208D00E4B984205D00D4B9842FB
:1015B00002D00D4B984201D10B7A0386012383821E
:1015C00070470000002C014000340140000400403E
:1015D00000080040000C00400010004000140040D3
:1015E00000400140004401400048014010B504465D
:1015F0000548047001210548FFF717FA0121034847
:10160000FFF73AF910BD0000C50000204400024079
:1016100010B540F224410C4800F0ACF898B100211C
:101620000A48FFF729F940F22441074800F030F852
:10163000054800F05BF960210448FFF7F6F9012145
:101640000248FFF719F910BD003801405800024068
:1016500010B540F224410C4800F08CF898B10021FC
:101660000A48FFF709F940F22441074800F010F852
:10167000054800F03BF960210448FFF7D6F9012145
:101680000248FFF7F9F810BD004800403000024062
:1016900010B50022002340F66A14A14200D100BF19
:1016A0000A1201249440A3B2DC43048010BD21B18E
:1016B000828942F40052828104E082894DF6FF73F0
:1016C0001A40828170471AB1838A0B43838202E0F9
:1016D000838A8B438382704710B504462048844236
:1016E00009D101218803FFF779FD00214FF48040E3
:1016F000FFF774FD32E01B48844209D10121480400
:10170000FFF74CFD00214FF40030FFF747FD25E0C7
:101710001548844209D101218804FFF73FFD0021CB
:101720004FF48020FFF73AFD18E01048844209D1B9
:101730000121C804FFF732FD00214FF40020FFF71C
:101740002DFD0BE00A48844208D101210805FFF76E
:1017500025FD00214FF48010FFF720FD10BD000093
:10176000003801400044004000480040004C004068
:101770000050004070B502460024002300250020E0
:1017800040F66A16B14200D100BFC1F3421501F024
:101790001F03012606FA03F3012D02D19689334077
:1017A00006E0022D02D1168A334001E0968A3340CA
:1017B0000C12012606FA04F41688344013B10CB159
:1017C000012000E0002070BDF0B503460024002693
:1017D0000025002040F66A17B94200D100BF184624
:1017E000C1F3421401F01F06012707FA06F5012C88
:1017F00001D10C3004E0022C01D1103000E0143093
:101800001AB107682F43076002E00768AF4307601B
:10181000F0BD00002DE9F04786B005460E460024D5
:10182000A24600BFA1460027B08900B100BF2F46E5
:101830002C8A4CF6FF700440F08804432C82AC895B
:101840004EF6F3100440B08831890843718908438B
:101850000443AC81AC8A4FF6FF400440B089044396
:10186000AC8201A8FFF7CAFC1F48874202D1DDF80D
:1018700010A001E0DDF80CA0A88900F4004040B100
:101880000AEBCA0000EB0A1031684900B0FBF1F81E
:1018900007E00AEBCA0000EB0A1031688900B0FBD0
:1018A000F1F86420B8FBF0F004012009642101FB89
:1018B0001089A88900F4004040B1322000EBC90033
:1018C000B0FBF1F000F00700044308E0322000EB29
:1018D00009106421B0FBF1F000F00F0004432C81EB
:1018E00006B0BDE8F0870000003801400146888856
:1018F000C0F308007047000010B56FF00400FFF758
:101900005BFD0A4800680A49B0FBF1F0094908701C
:101910000846007800EB4001C1EBC0104FF6FF71A4
:1019200001EAC0000449088010BD00002400002026
:1019300000127A0002000020040000200146114A33
:1019400012884A434FF0E0235A6100229A611A46F6
:10195000126942F001021A6100BF4FF0E0221069E3
:1019600000F001021AB100F48032002AF5D04FF0E5
:10197000E022126922F001024FF0E0231A610022F6
:101980009A617047040000200146114A12784A43C8
:101990004FF0E0235A6100229A611A46126942F020
:1019A00001021A6100BF4FF0E022106900F001024D
:1019B0001AB100F48032002AF5D04FF0E02212690B
:1019C00022F001024FF0E0231A6100229A61704771
:1019D00002000020FFF704FDFFF78EFF4FF4E13017
:1019E00000F076F8FFF794F9FEF754FD0120FEF7BA
:1019F0003FFD0F48FFF730FB40F2FF710020FFF77B
:101A00008FFBFEF7A1FD11E00A48006880F48050CA
:101A100008490860002407E0074830F81410204601
:101A2000FFF77EFB601CC4B2102CF5DBECE7000076
:101A3000000048420C08014038000020024601EB3B
:101A40008100204B03EB80001F4B33F8113030F83E
:101A500013001E4B53F82130181A1C4B43F8210079
:101A600001EB8100174B03EB8000174B33F811306B
:101A700020F8132001EB8100124B03EB8000124B86
:101A800033F8113030F81300104B53F8213018445C
:101A90000E4B43F821000C4830F81100401C0A4B53
:101AA00023F81100184630F811000A2802D100204E
:101AB00023F81100054850F821000A23B0FBF3F089
:101AC00080B2704786010020080000200C00002032
:101AD00010B592B00446012144F22400FFF76EFBDA
:101AE00001210846FFF73AFB01218804FFF746FB76
:101AF00001210846FFF762FBB448FFF7EDFD4FF404
:101B00000070ADF8440003208DF8460018208DF8D1
:101B1000470011A9AE48FEF78AFF4FF48060ADF888
:101B2000440004208DF8470011A9A948FEF77FFF63
:101B3000A848FFF7D1FD4FF48070ADF844000320B2
:101B40008DF8460018208DF8470011A9A248FEF72D
:101B50006EFF4FF40070ADF8440004208DF847008C
:101B600011A99D48FEF763FF01219C48FEF7EAFF9B
:101B70000E208DF8300001208DF8310000208DF806
:101B8000320001208DF833000CA8FFF723FA25203E
:101B90008DF8300000208DF831008DF832000120E2
:101BA0008DF833000CA8FFF715FA0C208DF83000E3
:101BB00001208DF8310000208DF8320001208DF8D1
:101BC00033000CA8FFF706FA27208DF8300000201C
:101BD0008DF831008DF8320001208DF833000CA80B
:101BE000FFF7F8F90D940020ADF83800ADF83A0091
:101BF000ADF83C00ADF840000C20ADF83E000DA95A
:101C00007248FFF707FE002240F226616F48FFF797
:101C1000DBFD002240F225516C48FFF7D5FD012283
:101C200040F224416948FFF7CFFD01228021674837
:101C3000FFF749FD012240216448FFF744FD0121DF
:101C40006248FFF734FD0D940020ADF83800ADF880
:101C50003A00ADF83C00ADF840000C20ADF83E0075
:101C60000DA95C48FFF7D6FD002240F226615948D5
:101C7000FFF7AAFD002240F225515648FFF7A4FDC8
:101C8000012240F224415348FFF79EFD01228021AA
:101C90005048FFF718FD012240214E48FFF713FD81
:101CA00001214C48FFF703FD4D48FEF7F1FD474881
:101CB000001D01904B48029000200390602004908A
:101CC0000020059080200690002007900890099041
:101CD0004FF480500A9000200B9001A94048FEF775
:101CE00086FE01213E48FEF7C7FD3D481438FEF749
:101CF000CFFD3648001D01903B4802901020039014
:101D0000302004900020059080200690002007904D
:101D1000089009904FF480500A9000200B9001A980
:101D20002F481438FEF763FE012202212C48143894
:101D3000FEF754FE2A482838FEF7AAFD2548001D64
:101D400001902A4802900020039060200490002017
:101D500005908020069000200790089009904FF48D
:101D600080500A9000200B9001A91D482838FEF7EA
:101D70003EFE01211A482838FEF77EFD18483C38FF
:101D8000FEF786FD1348001D0190194802901020AF
:101D900003903020049000200590802006900020C1
:101DA0000790089009904FF480500A9000200B9003
:101DB00001A90B483C38FEF71AFE0122022108480F
:101DC0003C38FEF70BFE12B010BD00000038014099
:101DD0000008014000480040001401403000140099
:101DE0005800024065000020C5000020F5000020DA
:101DF0005501002010B591EA030F48BF83F000435E
:101E000000F12E83841A71EB030C05D2121943EBF7
:101E10000C03001B61EB0C01DFF824E14FEA1154C5
:101E2000A4EB135C1EEA430F18BF9EEA445F73D015
:101E300023EA0E03DCF1200E21EA045143F480135F
:101E400032D322FA0CFE10EB0E0023FA0CFE41EB0B
:101E50000E01CCF1200E03FA0EFE10EB0E0051F134
:101E60000001B1F5801FCCF1200E32D201EB0451FC
:101E700012FA0EF2BDE8104058BF7047401C38BF40
:101E80005FEA420218BF7047002814BF20F001002B
:101E900041F100014FEA410313F5001F38BF7047BD
:101EA000A1F1C04100F0CEBA012A43EB0302ACF12C
:101EB000200CDCF11F0E32BF4FF0000E23FA0CF3A2
:101EC00010EB030041EB0451B4EB115FD0D0A1EB58
:101ED000045101F5801149085FEA300001EB04511B
:101EE0000ED350F1000038BF12FA0EFE08D1BDE843
:101EF0001040C9E7401C38BF5FEA4202CAD1C3E7BD
:101F0000BDE810404FEA410313F5001F38BF70478A
:101F1000A1F1C04100F096BA9EEA445F08D011EAF0
:101F20005E0FBDE8104004BF01F000410020704783
:101F3000BDE8104070B500F037FA00BF64FBBE3E4C
:101F40000000E0FF2DE9C04130B4DFF8A0C23CEA58
:101F5000111418BF3CEA131400F0EC8081EA030569
:101F60001CEA111444EAD57418BF1CEA131500F0DA
:101F7000C780A4EB05044FF0004545EAC12145EABE
:101F8000C32341EA505143EA525304F17F7499420A
:101F900004F500344FEAC0204FEAC22208BF904245
:101FA00000F09C804FEA13650FF24016765D4FEA11
:101FB000134506FB05F7C7F1807706FB07F74FEAE5
:101FC000D737A7FB03687642C8F58038A7FB06CE53
:101FD00038BFA8F1010807FB08E64FF0000EA6FB8A
:101FE000028CE6FB03CEDCF1000CCEF1004E38BFD4
:101FF000AEF1010EA6FB0C584FF000074FF00005A4
:10200000E6FB0E87A1FB08C6A0FB07CE16EB0E066B
:1020100045F10005E1FB076515F1E04E7EBFA4F533
:1020200080345FEA46066D4116F1800745F10005F0
:102030004FEA17274FEA066647EA0567A6F1DE462C
:10204000B6F1805F4FEA15251FD9384624F0010C00
:1020500005EBC471BCF1FE6F01EB0C1102D8F0BCB2
:10206000BDE8008124425CBF01F5801E9EEAC47F6A
:1020700002D4F0BCBDE80081244238D4F0BCA1F108
:10208000C041BDE8004100F0DDB94FEAD22242EA8A
:1020900043524FEAD323A7FB02864FEAD02040EAFF
:1020A000415007FB03661EEA0E0F4FEAD12105FBE4
:1020B000026658BFA6EB0056B6EB00564FEA520E2A
:1020C0004EEAC37E18EB0E0E56EB530EBDD518EB41
:1020D00002085E417F1C55F10005B6E74FF48015FC
:1020E0004FF000074FF000064FF00008ADE7F0BCDE
:1020F0004FF0000001F1C04101F00041BDE8008156
:1021000011EA0C1F0CEA131500D00CE013EA0C1FA7
:1021100000F025804FF00000F0BC81EA030101F0DF
:102120000041BDE80081F0BCBDE8004181EA030147
:1021300000F088B9F0BCBDE8004170B500F034F99A
:10214000097EFC3E00F007B881EA03014FF0000071
:1021500001F00041704781EA030100F073B9F0BC5F
:10216000BDE800414FF0000021497047FFFDFBF939
:10217000F7F5F4F2F0EEEDEBE9E8E6E4E3E1E0DEBA
:10218000DDDBDAD8D7D5D4D3D1D0CFCDCCCBCAC82C
:10219000C7C6C5C4C2C1C0BFBEBDBCBBBAB9B8B753
:1021A000B6B5B4B3B2B1B0AFAEADACABAAA9A8A846
:1021B000A7A6A5A4A3A3A2A1A09F9F9E9D9C9C9B14
:1021C0009A999998979796959594939392919190BF
:1021D0008F8F8E8E8D8C8C8B8B8A89898888878750
:1021E0008685858484838382828181800000FF07C5
:1021F0000000F87F4FEA41034FEA5353A3F5806391
:10220000D3F11E03C8BFD3F1210C0CDD4FF0004207
:1022100042EAC12242EA505232FA03FC8CEAE17CE3
:10222000ACEBE1707047102BC4BF0020704703F582
:10223000787CBCF1FF3F04D06FF0004282EA2100BD
:10224000704770B500F0B0F84992248000207047C4
:10225000F2E70000DFF848C170B51CEA111E1EBF8E
:102260001CEA13159EEA0C0F95EA0C0F00F06F8024
:1022700081EA030423EA4C134EEAD47E21EA4C118E
:1022800041F4801143F48013AE44A1FB024CA0FB47
:102290000365AEF17F7E361955EB0C05A1FB034CAF
:1022A0004CF10003A0FB021C16EB0C06654153F138
:1022B0000003094218BF46F0010613F4007F0BD15A
:1022C0004FEA03314FEA0530340341EA155140EA41
:1022D00016506FF003020AE04FEAC3214FEAC5200F
:1022E000F40241EA555140EA56506FF0020202EB07
:1022F0002E4201EB025585EACE710AD05FEA440C0A
:1023000018BF24F0004450F1000041F1000120EA20
:10231000D47040F2FE7C624500D270BDA84214BF6A
:102320004FF080444FF04044002E08BF0024BEF11F
:10233000806FA8BFA1F1C041BDE8704080F28280EB
:102340004FF0000001F1C04101F0004170479EEAEA
:102350000C0F0CEA131518BF95EA0C0F06D04FF0BE
:10236000000081EA030E0EF0004170BD00F01CF881
:102370008900013E00F007B800F009B84FEA430CAD
:102380005FEA5C5C08D081EA030100F05BB84FEAC9
:10239000410C5FEA5C5CF6D14FF0000001497047E8
:1023A0000000FF070000F87F0EF1020E2EF0030E72
:1023B0005EF8046B364205D4012A43EB030515F59C
:1023C000001F12D8012841EB010C1CF5001F0CD88E
:1023D0000ED14FEAD17C15F5001F0CEB4C0C0CF123
:1023E000020C08BF4CEBD37C04E04FF0080C01E07A
:1023F0004FEAD37C0CEB4C0526FA05F606F00706EF
:10240000B6F1040C06D20EEB860CBDE870404CF021
:10241000010C6047DFE80CF0090B02024FF00041AD
:102420004FF00000A1F5002170BD194610460128AB
:1024300051EB010418BFD4F5001484BF002001F053
:10244000004170BD0808A0F500114FEA3101704746
:1024500010B591EA030F48BF83F000433FF5D2ACBB
:10246000841A71EB030C07D212198CF0004C43EB69
:102470000C03001B61EB0C01DFF8A4E14FEA1154DF
:10248000A4EB135C1EEA430F18BF9EEA445F00F002
:10249000B08023EA6E03524221EA0451C3EB6E037B
:1024A00038BF5B1EDCF1200E25D322FA0CFE10EBA8
:1024B0000E0043FA0CFE41EB0E01CCF1200E03FAA4
:1024C0000EFE10EB0E0051F10001CCF1200E29D4CC
:1024D00012FA0EF201EB0451BDE8104058BF7047EC
:1024E000401C1CBFB2F1004F704700280CBF491CB4
:1024F00020F00100704712EB020E43EB030218BFFD
:102500004FF0010E4EEA4202ACF1200CDCF11E0E3F
:1025100054D943FA0CFE10EB0E0051F1FF31CCF10F
:102520001E0ED5D50EF1010E12FA0EFE404141EB02
:10253000010101EB445C5FEA5C5C10D910EBDE70DA
:1025400001EB045138BFBEF1004FBDE8104018BF89
:10255000704700280CBF491C20F00100704730D2A2
:102560004FEAD42C11F5001124F400641BD0B1FA09
:1025700081F20B3AA41AA41ED2F12003914030FA42
:1025800003F31943904001EBCC71002C01EB045193
:10259000BDE81040A8BF704701F1C0414FF00000F6
:1025A00001F000417047B0FA80F310FA03F100D156
:1025B00010BDE41A173C4805C90AE4E701EB0451D1
:1025C00010BD491001EB0451BDE810404FEA300046
:1025D00002E04FF0000170474A0008BF0042F8D007
:1025E000B2F5001F28BF704701F000414FF0000016
:1025F00070479EEA445F07D011EA5E0FBDE81040C5
:1026000004BF002100207047BDE8104070B5FFF7FF
:10261000CBFE00BF40DFF63E83F00041104670471E
:102620000000E0FF43004FEAD30C4FEA3C0C43406C
:102630001FBF40070CF1605113F0FE4F70471CF0B4
:10264000006F03D100200CF0004170470CF00043F4
:1026500043EA507010B540EACC0000F0E8F900BF42
:10266000000000924FEA0001FFF7ECBE4FF000417E
:102670004FF00000A1F500217047000090EA010F23
:1026800048BF81F0004100F12482421A3CBF801A09
:1026900089184FEAD0524FF07F4C1CEA410FA2EB51
:1026A000D15318BF9CEA026F00F03B804FF0004C02
:1026B0004CEA00204CEA012121FA03FC10EB0C0C3F
:1026C0001ED202F1FF325FEA1C2040EBC25038BF3D
:1026D00070471CF07F0F4FEA400C18BFBCF17F4FD2
:1026E00038BF7047C3F12003994008BF20F00100B4
:1026F000BCF17F4F38BF7047A0F1C04000F0DDB99A
:102700004FEA3C00000A40EBC25028BF1CF0FF0F0C
:102710004FEA400CE6D018BFBCF17F4F38BF70477E
:10272000EAE79CEA026F05D010EA5C0F08BF00F0F0
:102730000040704710B500F07AF900BF64FBBE3E60
:102740004FF47F0C1CEAD0121EBF1CEAD11392EA90
:102750000C0F93EA0C0F00F0858090EA010F48BF40
:1027600042F4807240F4000C41F400002CF07F41F0
:1027700020F07F4000B58142A2EB03020FF2081C5B
:10278000ACEB504EC0F100009EF800E04FEA4E0E58
:1027900000FB0EFC38BF49004FEA2C1C02F5FA0280
:1027A0000CFB0EF34FEACE1E4FEA112C4FEAC1216B
:1027B0000EEB635E42EB22420EFB0CFC4FEA1C5315
:1027C00000FB03114FEA112C4FEA01310EFB0CFC08
:1027D0004FEADC4C00FB0C11C14228BF09184CEB3E
:1027E00003335DF804EB10EB410143EBC250B2F54B
:1027F0007C0F38BF704729D512F0F00F1CBF00F1D5
:10280000C04000F000407047008182838485868745
:1028100088898B8C8D8E8F919293959697999A9C9F
:102820009D9FA0A2A3A5A7A8AAACAEB0B2B3B5B70E
:10283000B9BCBEC0C2C5C7C9CCCED1D4D7D9DCDFE4
:10284000E2E6E9ECF0F3F7FAFE0000004FEA400C94
:102850000CF1807CBCF17E4F28BF7047B0F1C040C6
:1028600000F02BB990EA010F0CEAD11348BF42F4F3
:102870008072624538BF634507D213F47F0F16D0CC
:1028800080EA010000F00040704710B500F0CFF87A
:10289000097EFC3E00F005B880EA010000F000402F
:1028A000704780EA010000F0004000F006B912F421
:1028B0007F0F04BF0248704780EA010000F0FDB8B6
:1028C0000000C07FC10DD1F19E0206DB4FEA00235C
:1028D00043F0004323FA02F07047004207D54FEA65
:1028E0004001B1F1FE4F02D24FF00000704710B529
:1028F00000F09DF849922480002070476FEA200084
:1029000070470000B0FA80F310FA03F2C3F19D03A0
:102910000AD0D90501EB1220530638BF704700F1E9
:10292000010008BF20F00100704700004FF47F0C49
:102930001CEAD0121EBF1CEAD11392EA0C0F93EAD4
:102940000C0F00F0478090EA010F48BF42F48072FC
:102950004FF0004C4CEA00204CEA012102EB03024C
:10296000A0FB0113A2F50002002918BF43F00103E8
:102970005B0028BF4FEA330342EB22425FEA132C8D
:102980004CEBC2502EBFBCEB436FB2F57C0F7047CF
:102990004FEA036CBCF1004F08BF20F00100B2F514
:1029A0007C0F38BF70470BD582F0FF0212F5803FD5
:1029B000C8BF704700F1C040D8BF00F0004070476A
:1029C00000F5000C5FEA4C0C48BF7047B0F1C04006
:1029D00000F073B890EA010F0CEAD11348BF42F43B
:1029E0008072624538BF634504D280EA010000F07E
:1029F0000040704710B500F01AF800BF8900013E92
:102A000000F007B800F009B85FEA410C5FEA1C6CFF
:102A100008D080EA010000F050B85FEA400C5FEA9D
:102A20001C6CF6D14FF00040A0F5800070470EF10D
:102A3000020E2EF0030E5EF8044B244204D44FEA3B
:102A40004102B2F17F4F11D84FEA4003B3F17F4FFB
:102A50000CD80ED14FEAD07CB2F17F4F0CEB4C0C6E
:102A60000CF1020C08BF4CEBD17C04E04FF0080CD9
:102A700001E04FEAD17C0CEB4C0324FA03F404F0A0
:102A80000704B4F1040C06D20EEB840CBDE8104030
:102A90004CF0010C6047DFE80CF0070802024FF031
:102AA0000040A0F5800010BD0846420018BFD2F1DA
:102AB000807288BF00F0004010BDFF2141EAD05075
:102AC000C005704790EA010F48BF81F000413FF513
:102AD000DCAD421A04D882F00042A0EB020011449F
:102AE0004FEAD0524FF07F4C1CEA410FA2EBD1537A
:102AF00018BF9CEA026F4AD04FF0004C4CEA00200D
:102B00004CEA012121FA03FCB0EB0C0C0FD412F0BB
:102B1000FE0F36D05FEA4C001DD5001240EBC250CC
:102B200038BF70471CF03F0F18BF70470BE0A2F191
:102B300001025FEA1C2040EBC25038BF70471CF016
:102B40007F0F18BF7047C3F12003994014BF401E88
:102B500020F00100704780084FEA122308BF704739
:102B6000B0FA80FCA2EB0C02CCF1280C60FA0CF05D
:102B700093EA122F04BF00EBC25070474FEAC370B4
:102B80007047130A5FEADC1008BF7047F6E79CEA5B
:102B9000026F04D010EA5C0F08BF0020704710B528
:102BA000FFF745FF40DFF63E81F000407047000030
:102BB000D02B000800000020380000006C01000845
:102BC000082C000838000020C80700008801000811
:102BD00000000000000000000000000000000000F5
:102BE00000000000010203040102030406070809B3
:102BF0000204060800A24A040000000000000000D1
:082C00000102030406070809A4
:0400000508000131BD
:00000001FF
